{
  "abi": [
    {
      "inputs": [],
      "stateMutability": "nonpayable",
      "type": "constructor"
    },
    {
      "inputs": [],
      "name": "EntryNotFound",
      "type": "error"
    },
    {
      "inputs": [],
      "name": "OnlyOwnerAccess",
      "type": "error"
    },
    {
      "anonymous": false,
      "inputs": [
        {
          "indexed": true,
          "internalType": "address",
          "name": "addressBook",
          "type": "address"
        },
        {
          "indexed": true,
          "internalType": "uint256",
          "name": "index",
          "type": "uint256"
        },
        {
          "components": [
            {
              "internalType": "string",
              "name": "name",
              "type": "string"
            },
            {
              "internalType": "enum IAddressBook.Tipology",
              "name": "tipology",
              "type": "uint8"
            },
            {
              "internalType": "address",
              "name": "entryAddress",
              "type": "address"
            },
            {
              "internalType": "string[]",
              "name": "labels",
              "type": "string[]"
            }
          ],
          "indexed": false,
          "internalType": "struct IAddressBook.Entry",
          "name": "entry",
          "type": "tuple"
        }
      ],
      "name": "EntryAdded",
      "type": "event"
    },
    {
      "anonymous": false,
      "inputs": [
        {
          "indexed": true,
          "internalType": "address",
          "name": "addressBook",
          "type": "address"
        },
        {
          "indexed": true,
          "internalType": "uint256",
          "name": "index",
          "type": "uint256"
        },
        {
          "components": [
            {
              "internalType": "string",
              "name": "name",
              "type": "string"
            },
            {
              "internalType": "enum IAddressBook.Tipology",
              "name": "tipology",
              "type": "uint8"
            },
            {
              "internalType": "address",
              "name": "entryAddress",
              "type": "address"
            },
            {
              "internalType": "string[]",
              "name": "labels",
              "type": "string[]"
            }
          ],
          "indexed": false,
          "internalType": "struct IAddressBook.Entry",
          "name": "entry",
          "type": "tuple"
        }
      ],
      "name": "EntryDeleted",
      "type": "event"
    },
    {
      "anonymous": false,
      "inputs": [
        {
          "indexed": true,
          "internalType": "address",
          "name": "addressBook",
          "type": "address"
        },
        {
          "indexed": true,
          "internalType": "uint256",
          "name": "index",
          "type": "uint256"
        },
        {
          "components": [
            {
              "internalType": "string",
              "name": "name",
              "type": "string"
            },
            {
              "internalType": "enum IAddressBook.Tipology",
              "name": "tipology",
              "type": "uint8"
            },
            {
              "internalType": "address",
              "name": "entryAddress",
              "type": "address"
            },
            {
              "internalType": "string[]",
              "name": "labels",
              "type": "string[]"
            }
          ],
          "indexed": false,
          "internalType": "struct IAddressBook.Entry",
          "name": "entry",
          "type": "tuple"
        }
      ],
      "name": "EntryUpdated",
      "type": "event"
    },
    {
      "inputs": [
        {
          "internalType": "string[]",
          "name": "names",
          "type": "string[]"
        },
        {
          "internalType": "enum IAddressBook.Tipology[]",
          "name": "tipologies",
          "type": "uint8[]"
        },
        {
          "internalType": "address[]",
          "name": "entryAddresses",
          "type": "address[]"
        },
        {
          "internalType": "string[][]",
          "name": "labels",
          "type": "string[][]"
        }
      ],
      "name": "addEntries",
      "outputs": [
        {
          "components": [
            {
              "internalType": "string",
              "name": "name",
              "type": "string"
            },
            {
              "internalType": "enum IAddressBook.Tipology",
              "name": "tipology",
              "type": "uint8"
            },
            {
              "internalType": "address",
              "name": "entryAddress",
              "type": "address"
            },
            {
              "internalType": "string[]",
              "name": "labels",
              "type": "string[]"
            }
          ],
          "internalType": "struct IAddressBook.Entry[]",
          "name": "newEntries",
          "type": "tuple[]"
        }
      ],
      "stateMutability": "nonpayable",
      "type": "function"
    },
    {
      "inputs": [
        {
          "internalType": "string",
          "name": "name",
          "type": "string"
        },
        {
          "internalType": "enum IAddressBook.Tipology",
          "name": "tipology",
          "type": "uint8"
        },
        {
          "internalType": "address",
          "name": "entryAddress",
          "type": "address"
        },
        {
          "internalType": "string[]",
          "name": "labels",
          "type": "string[]"
        }
      ],
      "name": "addEntry",
      "outputs": [
        {
          "components": [
            {
              "internalType": "string",
              "name": "name",
              "type": "string"
            },
            {
              "internalType": "enum IAddressBook.Tipology",
              "name": "tipology",
              "type": "uint8"
            },
            {
              "internalType": "address",
              "name": "entryAddress",
              "type": "address"
            },
            {
              "internalType": "string[]",
              "name": "labels",
              "type": "string[]"
            }
          ],
          "internalType": "struct IAddressBook.Entry",
          "name": "",
          "type": "tuple"
        }
      ],
      "stateMutability": "nonpayable",
      "type": "function"
    },
    {
      "inputs": [
        {
          "internalType": "uint256",
          "name": "index",
          "type": "uint256"
        }
      ],
      "name": "deleteEntry",
      "outputs": [
        {
          "components": [
            {
              "internalType": "string",
              "name": "name",
              "type": "string"
            },
            {
              "internalType": "enum IAddressBook.Tipology",
              "name": "tipology",
              "type": "uint8"
            },
            {
              "internalType": "address",
              "name": "entryAddress",
              "type": "address"
            },
            {
              "internalType": "string[]",
              "name": "labels",
              "type": "string[]"
            }
          ],
          "internalType": "struct IAddressBook.Entry",
          "name": "",
          "type": "tuple"
        }
      ],
      "stateMutability": "nonpayable",
      "type": "function"
    },
    {
      "inputs": [
        {
          "internalType": "uint256",
          "name": "",
          "type": "uint256"
        }
      ],
      "name": "entries",
      "outputs": [
        {
          "internalType": "string",
          "name": "name",
          "type": "string"
        },
        {
          "internalType": "enum IAddressBook.Tipology",
          "name": "tipology",
          "type": "uint8"
        },
        {
          "internalType": "address",
          "name": "entryAddress",
          "type": "address"
        }
      ],
      "stateMutability": "view",
      "type": "function"
    },
    {
      "inputs": [],
      "name": "getEntries",
      "outputs": [
        {
          "components": [
            {
              "internalType": "string",
              "name": "name",
              "type": "string"
            },
            {
              "internalType": "enum IAddressBook.Tipology",
              "name": "tipology",
              "type": "uint8"
            },
            {
              "internalType": "address",
              "name": "entryAddress",
              "type": "address"
            },
            {
              "internalType": "string[]",
              "name": "labels",
              "type": "string[]"
            }
          ],
          "internalType": "struct IAddressBook.Entry[]",
          "name": "",
          "type": "tuple[]"
        }
      ],
      "stateMutability": "view",
      "type": "function"
    },
    {
      "inputs": [
        {
          "internalType": "uint256",
          "name": "index",
          "type": "uint256"
        }
      ],
      "name": "getEntry",
      "outputs": [
        {
          "components": [
            {
              "internalType": "string",
              "name": "name",
              "type": "string"
            },
            {
              "internalType": "enum IAddressBook.Tipology",
              "name": "tipology",
              "type": "uint8"
            },
            {
              "internalType": "address",
              "name": "entryAddress",
              "type": "address"
            },
            {
              "internalType": "string[]",
              "name": "labels",
              "type": "string[]"
            }
          ],
          "internalType": "struct IAddressBook.Entry",
          "name": "",
          "type": "tuple"
        }
      ],
      "stateMutability": "view",
      "type": "function"
    },
    {
      "inputs": [],
      "name": "owner",
      "outputs": [
        {
          "internalType": "address",
          "name": "",
          "type": "address"
        }
      ],
      "stateMutability": "view",
      "type": "function"
    },
    {
      "inputs": [
        {
          "internalType": "uint256",
          "name": "index",
          "type": "uint256"
        },
        {
          "internalType": "string",
          "name": "name",
          "type": "string"
        },
        {
          "internalType": "enum IAddressBook.Tipology",
          "name": "tipology",
          "type": "uint8"
        },
        {
          "internalType": "address",
          "name": "entryAddress",
          "type": "address"
        },
        {
          "internalType": "string[]",
          "name": "labels",
          "type": "string[]"
        }
      ],
      "name": "updateEntry",
      "outputs": [
        {
          "components": [
            {
              "internalType": "string",
              "name": "name",
              "type": "string"
            },
            {
              "internalType": "enum IAddressBook.Tipology",
              "name": "tipology",
              "type": "uint8"
            },
            {
              "internalType": "address",
              "name": "entryAddress",
              "type": "address"
            },
            {
              "internalType": "string[]",
              "name": "labels",
              "type": "string[]"
            }
          ],
          "internalType": "struct IAddressBook.Entry",
          "name": "",
          "type": "tuple"
        }
      ],
      "stateMutability": "nonpayable",
      "type": "function"
    }
  ],
  "bytecode": {
    "object": "0x60806040523480156200001157600080fd5b50336001600160a01b031663890357306040518163ffffffff1660e01b8152600401602060405180830381865afa15801562000051573d6000803e3d6000fd5b505050506040513d601f19601f820116820180604052508101906200007791906200009d565b600080546001600160a01b0319166001600160a01b0392909216919091179055620000cf565b600060208284031215620000b057600080fd5b81516001600160a01b0381168114620000c857600080fd5b9392505050565b61212580620000df6000396000f3fe608060405234801561001057600080fd5b50600436106100885760003560e01c8063bae78d7b1161005b578063bae78d7b14610132578063cde9cf4c14610145578063d5f91dc414610158578063f847d79c1461016b57600080fd5b806311f7516c1461008d57806317be85c3146100b65780638da5cb5b146100cb578063b30906d414610110575b600080fd5b6100a061009b36600461168a565b61017e565b6040516100ad9190611836565b60405180910390f35b6100be610247565b6040516100ad9190611850565b6000546100eb9073ffffffffffffffffffffffffffffffffffffffff1681565b60405173ffffffffffffffffffffffffffffffffffffffff90911681526020016100ad565b61012361011e36600461168a565b610466565b6040516100ad939291906118d0565b6100a061014036600461168a565b610543565b6100be610153366004611962565b610761565b6100a0610166366004611a9b565b610954565b6100a0610179366004611b39565b610a66565b6101aa604080516080810190915260608152602081016000815260006020820152606060409091015290565b60005473ffffffffffffffffffffffffffffffffffffffff1633146101fb576040517f17e44b9300000000000000000000000000000000000000000000000000000000815260040160405180910390fd5b6001548210610236576040517fba8fc29200000000000000000000000000000000000000000000000000000000815260040160405180910390fd5b61023f82610b36565b90505b919050565b60606001805480602002602001604051908101604052809291908181526020016000905b8282101561045d578382906000526020600020906003020160405180608001604052908160008201805461029e90611bcd565b80601f01602080910402602001604051908101604052809291908181526020018280546102ca90611bcd565b80156103175780601f106102ec57610100808354040283529160200191610317565b820191906000526020600020905b8154815290600101906020018083116102fa57829003601f168201915b505050918352505060018281015460209092019160ff169081111561033e5761033e61170e565b600181111561034f5761034f61170e565b81526001820154610100900473ffffffffffffffffffffffffffffffffffffffff16602080830191909152600283018054604080518285028101850182528281529401939260009084015b828210156104465783829060005260206000200180546103b990611bcd565b80601f01602080910402602001604051908101604052809291908181526020018280546103e590611bcd565b80156104325780601f1061040757610100808354040283529160200191610432565b820191906000526020600020905b81548152906001019060200180831161041557829003601f168201915b50505050508152602001906001019061039a565b50505050815250508152602001906001019061026b565b50505050905090565b6001818154811061047657600080fd5b906000526020600020906003020160009150905080600001805461049990611bcd565b80601f01602080910402602001604051908101604052809291908181526020018280546104c590611bcd565b80156105125780601f106104e757610100808354040283529160200191610512565b820191906000526020600020905b8154815290600101906020018083116104f557829003601f168201915b5050506001909301549192505060ff81169073ffffffffffffffffffffffffffffffffffffffff6101009091041683565b61056f604080516080810190915260608152602081016000815260006020820152606060409091015290565b6001828154811061058257610582611c20565b90600052602060002090600302016040518060800160405290816000820180546105ab90611bcd565b80601f01602080910402602001604051908101604052809291908181526020018280546105d790611bcd565b80156106245780601f106105f957610100808354040283529160200191610624565b820191906000526020600020905b81548152906001019060200180831161060757829003601f168201915b505050918352505060018281015460209092019160ff169081111561064b5761064b61170e565b600181111561065c5761065c61170e565b81526001820154610100900473ffffffffffffffffffffffffffffffffffffffff16602080830191909152600283018054604080518285028101850182528281529401939260009084015b828210156107535783829060005260206000200180546106c690611bcd565b80601f01602080910402602001604051908101604052809291908181526020018280546106f290611bcd565b801561073f5780601f106107145761010080835404028352916020019161073f565b820191906000526020600020905b81548152906001019060200180831161072257829003601f168201915b5050505050815260200190600101906106a7565b505050915250909392505050565b60005460609073ffffffffffffffffffffffffffffffffffffffff1633146107b5576040517f17e44b9300000000000000000000000000000000000000000000000000000000815260040160405180910390fd5b8767ffffffffffffffff8111156107ce576107ce611c4f565b60405190808252806020026020018201604052801561082b57816020015b610818604080516080810190915260608152602081016000815260006020820152606060409091015290565b8152602001906001900390816107ec5790505b50905060005b88811015610947576109178a8a8381811061084e5761084e611c20565b90506020028101906108609190611c7e565b8080601f0160208091040260200160405190810160405280939291908181526020018383808284376000920191909152508c92508b91508590508181106108a9576108a9611c20565b90506020020160208101906108be9190611ce3565b8888858181106108d0576108d0611c20565b90506020020160208101906108e59190611cfe565b8787868181106108f7576108f7611c20565b90506020028101906109099190611d19565b61091291611dd0565b610f3f565b82828151811061092957610929611c20565b6020026020010181905250808061093f90611ef2565b915050610831565b5098975050505050505050565b610980604080516080810190915260608152602081016000815260006020820152606060409091015290565b60005473ffffffffffffffffffffffffffffffffffffffff1633146109d1576040517f17e44b9300000000000000000000000000000000000000000000000000000000815260040160405180910390fd5b6001548810610a0c576040517fba8fc29200000000000000000000000000000000000000000000000000000000815260040160405180910390fd5b610a5a8888888080601f0160208091040260200160405190810160405280939291908181526020018383808284376000920191909152508a9250899150610a5590508789611dd0565b611123565b98975050505050505050565b610a92604080516080810190915260608152602081016000815260006020820152606060409091015290565b60005473ffffffffffffffffffffffffffffffffffffffff163314610ae3576040517f17e44b9300000000000000000000000000000000000000000000000000000000815260040160405180910390fd5b610b2b87878080601f01602080910402602001604051908101604052809392919081815260200183838082843760009201919091525089925088915061091290508688611dd0565b979650505050505050565b610b62604080516080810190915260608152602081016000815260006020820152606060409091015290565b60018281548110610b7557610b75611c20565b9060005260206000209060030201604051806080016040529081600082018054610b9e90611bcd565b80601f0160208091040260200160405190810160405280929190818152602001828054610bca90611bcd565b8015610c175780601f10610bec57610100808354040283529160200191610c17565b820191906000526020600020905b815481529060010190602001808311610bfa57829003601f168201915b505050918352505060018281015460209092019160ff1690811115610c3e57610c3e61170e565b6001811115610c4f57610c4f61170e565b81526001820154610100900473ffffffffffffffffffffffffffffffffffffffff16602080830191909152600283018054604080518285028101850182528281529401939260009084015b82821015610d46578382906000526020600020018054610cb990611bcd565b80601f0160208091040260200160405190810160405280929190818152602001828054610ce590611bcd565b8015610d325780601f10610d0757610100808354040283529160200191610d32565b820191906000526020600020905b815481529060010190602001808311610d1557829003601f168201915b505050505081526020019060010190610c9a565b5050509152505060018054919250600091610d619190611f2a565b9050808314610e835760018181548110610d7d57610d7d611c20565b906000526020600020906003020160018481548110610d9e57610d9e611c20565b90600052602060002090600302016000820181600001908054610dc090611bcd565b610dcb92919061144f565b50600182810154828201805460ff9092169290917fffffffffffffffffffffffffffffffffffffffffffffffffffffffffffffff0016908381811115610e1357610e1361170e565b021790555060018281015490820180547fffffffffffffffffffffff0000000000000000000000000000000000000000ff166101009283900473ffffffffffffffffffffffffffffffffffffffff1690920291909117905560028083018054610e7f92840191906114da565b5050505b60018181548110610e9657610e96611c20565b60009182526020822060039091020190610eb0828261153c565b6001820180547fffffffffffffffffffffff000000000000000000000000000000000000000000169055610ee8600283016000611579565b5050823073ffffffffffffffffffffffffffffffffffffffff167f8a412a25a9a4e9824101241641b54fc08a74dee75b1ac9b445f632b26de812e384604051610f319190611836565b60405180910390a350919050565b610f6b604080516080810190915260608152602081016000815260006020820152606060409091015290565b84815260208101846001811115610f8457610f8461170e565b90816001811115610f9757610f9761170e565b90525073ffffffffffffffffffffffffffffffffffffffff83166040820152606081018290526001805480820182556000919091528151805183926003027fb10e2d527612073b26eecdfd717e6a320cf44b4afac2b0732d9fcbe2b7fa0cf6019161100791839160200190611597565b5060208201516001808301805490917fffffffffffffffffffffffffffffffffffffffffffffffffffffffffffffff0090911690838181111561104c5761104c61170e565b0217905550604082015160018201805473ffffffffffffffffffffffffffffffffffffffff909216610100027fffffffffffffffffffffff0000000000000000000000000000000000000000ff909216919091179055606082015180516110bd91600284019160209091019061160b565b5050600180546110cd9250611f2a565b3073ffffffffffffffffffffffffffffffffffffffff167fbfcce9c75d460beaf93f8724c3ab61eb7dd92e037e4cc0ed1a29ca28852b0f0a836040516111139190611836565b60405180910390a3949350505050565b61114f604080516080810190915260608152602081016000815260006020820152606060409091015290565b60006001878154811061116457611164611c20565b60009182526020918290208851600390920201925061118891839190890190611597565b506001808201805487927fffffffffffffffffffffffffffffffffffffffffffffffffffffffffffffff009091169083818111156111c8576111c861170e565b02179055506001810180547fffffffffffffffffffffff0000000000000000000000000000000000000000ff1661010073ffffffffffffffffffffffffffffffffffffffff8716021790558251611228906002830190602086019061160b565b50863073ffffffffffffffffffffffffffffffffffffffff167f1a00c599480181f2de1f4d551e5e85fdbe2d00629834f0e53b49e114420ae7d1836040516112709190612017565b60405180910390a38060405180608001604052908160008201805461129490611bcd565b80601f01602080910402602001604051908101604052809291908181526020018280546112c090611bcd565b801561130d5780601f106112e25761010080835404028352916020019161130d565b820191906000526020600020905b8154815290600101906020018083116112f057829003601f168201915b505050918352505060018281015460209092019160ff16908111156113345761133461170e565b60018111156113455761134561170e565b81526001820154610100900473ffffffffffffffffffffffffffffffffffffffff16602080830191909152600283018054604080518285028101850182528281529401939260009084015b8282101561143c5783829060005260206000200180546113af90611bcd565b80601f01602080910402602001604051908101604052809291908181526020018280546113db90611bcd565b80156114285780601f106113fd57610100808354040283529160200191611428565b820191906000526020600020905b81548152906001019060200180831161140b57829003601f168201915b505050505081526020019060010190611390565b5050509152509098975050505050505050565b82805461145b90611bcd565b90600052602060002090601f01602090048101928261147d57600085556114ca565b82601f1061148e57805485556114ca565b828001600101855582156114ca57600052602060002091601f016020900482015b828111156114ca5782548255916001019190600101906114af565b506114d6929150611658565b5090565b8280548282559060005260206000209081019282156115305760005260206000209182015b8281111561153057828290805461151590611bcd565b61152092919061144f565b50916001019190600101906114ff565b506114d692915061166d565b50805461154890611bcd565b6000825580601f10611558575050565b601f0160209004906000526020600020908101906115769190611658565b50565b5080546000825590600052602060002090810190611576919061166d565b8280546115a390611bcd565b90600052602060002090601f0160209004810192826115c557600085556114ca565b82601f106115de57805160ff19168380011785556114ca565b828001600101855582156114ca579182015b828111156114ca5782518255916020019190600101906115f0565b828054828255906000526020600020908101928215611530579160200282015b828111156115305782518051611648918491602090910190611597565b509160200191906001019061162b565b5b808211156114d65760008155600101611659565b808211156114d6576000611681828261153c565b5060010161166d565b60006020828403121561169c57600080fd5b5035919050565b6000815180845260005b818110156116c9576020818501810151868301820152016116ad565b818111156116db576000602083870101525b50601f017fffffffffffffffffffffffffffffffffffffffffffffffffffffffffffffffe0169290920160200192915050565b7f4e487b7100000000000000000000000000000000000000000000000000000000600052602160045260246000fd5b60028110611774577f4e487b7100000000000000000000000000000000000000000000000000000000600052602160045260246000fd5b9052565b600081516080845261178d60808501826116a3565b90506020808401516117a18287018261173d565b5073ffffffffffffffffffffffffffffffffffffffff6040850151166040860152606084015185830360608701528281518085528385019150838160051b860101848401935060005b82811015610947577fffffffffffffffffffffffffffffffffffffffffffffffffffffffffffffffe08783030184526118248286516116a3565b948601949386019391506001016117ea565b6020815260006118496020830184611778565b9392505050565b6000602080830181845280855180835260408601915060408160051b870101925083870160005b828110156118c3577fffffffffffffffffffffffffffffffffffffffffffffffffffffffffffffffc08886030184526118b1858351611778565b94509285019290850190600101611877565b5092979650505050505050565b6060815260006118e360608301866116a3565b90506118f2602083018561173d565b73ffffffffffffffffffffffffffffffffffffffff83166040830152949350505050565b60008083601f84011261192857600080fd5b50813567ffffffffffffffff81111561194057600080fd5b6020830191508360208260051b850101111561195b57600080fd5b9250929050565b6000806000806000806000806080898b03121561197e57600080fd5b883567ffffffffffffffff8082111561199657600080fd5b6119a28c838d01611916565b909a50985060208b01359150808211156119bb57600080fd5b6119c78c838d01611916565b909850965060408b01359150808211156119e057600080fd5b6119ec8c838d01611916565b909650945060608b0135915080821115611a0557600080fd5b50611a128b828c01611916565b999c989b5096995094979396929594505050565b60008083601f840112611a3857600080fd5b50813567ffffffffffffffff811115611a5057600080fd5b60208301915083602082850101111561195b57600080fd5b80356002811061024257600080fd5b803573ffffffffffffffffffffffffffffffffffffffff8116811461024257600080fd5b600080600080600080600060a0888a031215611ab657600080fd5b87359650602088013567ffffffffffffffff80821115611ad557600080fd5b611ae18b838c01611a26565b9098509650869150611af560408b01611a68565b9550611b0360608b01611a77565b945060808a0135915080821115611b1957600080fd5b50611b268a828b01611916565b989b979a50959850939692959293505050565b60008060008060008060808789031215611b5257600080fd5b863567ffffffffffffffff80821115611b6a57600080fd5b611b768a838b01611a26565b9098509650869150611b8a60208a01611a68565b9550611b9860408a01611a77565b94506060890135915080821115611bae57600080fd5b50611bbb89828a01611916565b979a9699509497509295939492505050565b600181811c90821680611be157607f821691505b602082108103611c1a577f4e487b7100000000000000000000000000000000000000000000000000000000600052602260045260246000fd5b50919050565b7f4e487b7100000000000000000000000000000000000000000000000000000000600052603260045260246000fd5b7f4e487b7100000000000000000000000000000000000000000000000000000000600052604160045260246000fd5b60008083357fffffffffffffffffffffffffffffffffffffffffffffffffffffffffffffffe1843603018112611cb357600080fd5b83018035915067ffffffffffffffff821115611cce57600080fd5b60200191503681900382131561195b57600080fd5b600060208284031215611cf557600080fd5b61184982611a68565b600060208284031215611d1057600080fd5b61184982611a77565b60008083357fffffffffffffffffffffffffffffffffffffffffffffffffffffffffffffffe1843603018112611d4e57600080fd5b83018035915067ffffffffffffffff821115611d6957600080fd5b6020019150600581901b360382131561195b57600080fd5b604051601f82017fffffffffffffffffffffffffffffffffffffffffffffffffffffffffffffffe016810167ffffffffffffffff81118282101715611dc857611dc8611c4f565b604052919050565b600067ffffffffffffffff80841115611deb57611deb611c4f565b8360051b6020611dfc818301611d81565b868152918501918181019036841115611e1457600080fd5b865b84811015611eb757803586811115611e2e5760008081fd5b8801601f3681830112611e415760008081fd5b813588811115611e5357611e53611c4f565b611e82877fffffffffffffffffffffffffffffffffffffffffffffffffffffffffffffffe08484011601611d81565b91508082523687828501011115611e995760008081fd5b80878401888401376000908201870152845250918301918301611e16565b50979650505050505050565b7f4e487b7100000000000000000000000000000000000000000000000000000000600052601160045260246000fd5b60007fffffffffffffffffffffffffffffffffffffffffffffffffffffffffffffffff8203611f2357611f23611ec3565b5060010190565b600082821015611f3c57611f3c611ec3565b500390565b8054600090600181811c9080831680611f5b57607f831692505b60208084108203611f95577f4e487b7100000000000000000000000000000000000000000000000000000000600052602260045260246000fd5b83885260208801828015611fb05760018114611fdf5761200a565b7fffffffffffffffffffffffffffffffffffffffffffffffffffffffffffffff0087168252828201975061200a565b60008981526020902060005b8781101561200457815484820152908601908401611feb565b83019850505b5050505050505092915050565b6000602080835260808184015261203160a0840185611f41565b6001808601546120476040870160ff831661173d565b73ffffffffffffffffffffffffffffffffffffffff8160081c16606087015250600286017fffffffffffffffffffffffffffffffffffffffffffffffffffffffffffffffe0808785030160808801528382548086528686019150868160051b8701018460005287600020945060005b828110156120e057848883030184526120cf8287611f41565b9587019593890193915086016120b6565b509a995050505050505050505056fea2646970667358221220131dfbb8ee9b4d13a378c1451d4878ec6c212cdd600c794baadd2bf3a090cbfe64736f6c634300080d0033",
    "linkReferences": {}
  }
}